:1000000093EF00F0FF00FF00F2A401D001D011D067
:10001000F2AA01D001D00DD0D768D80ED66EF294D6
:100020003D503C10D8B401D001D003D03C06D8A03C
:100030003D069EA001D001D06BD09DA001D001D083
:1000400067D09E90FD0ECF6E8E0ECE6E81BC01D01D
:1000500001D006D00001C3B301D001D001D0C383C9
:100060003F503E10D8B401D001D003D03E06D8A0F6
:100070003F063F503E10D8A401D001D03FD0010E22
:100080000E6E000E0F6E000E106E000E116E2AEC3A
:100090008EF03B503A10D8B401D001D004D03A06CB
:1000A000D8A03B0606D00001C381020E3B6E580E5D
:1000B0003A6E0001BE51BB11BC11BD11D8B401D0C4
:1000C00001D006D0BB07000EBC5BBD5BBE5B08D099
:1000D000800EBB6F510EBC6F000EBD6F000EBE6F69
:1000E0004050D8B401D001D002D0400603D01E0E3B
:1000F000406EC385030E3F6EE80E3E6E0001C65192
:10010000C511D8B401D001D003D0C507D8A0C60707
:10011000A1A201D001D006D0A192F70E7B6EDB0E1A
:100120007A6E4280110012EF91F0FF00FF00FF0095
:10FE2000FF00FF00FF00FF00FF000000803FCDCC7F
:10FE3000CC3D0AD7233C6F12833A17B7D138ACC5F3
:10FE40002737BD37863595BFD63377CC2B325F70D9
:10FE50008930FFE6DB2E08E53C1E6042A20D000063
:10FE6000803F000020410000C84200007A4400406A
:10FE70001C460050C347002474498096184B20BC90
:10FE8000BE4C286B6E4EF9021550EC78AD60CAF28C
:10FE90004971001F1E1D1B1A191F1D1C1B1A1F1E36
:10FEA0001D1C1A191F001C1B1A191E1D1C1B191FB3
:10FEB0001E1D1B1A191F1D1C1B001F1C1F1E1F1E91
:10FEC0001F1F1E1F1E1F0C090306010000000A0051
:10FED000000064000000E803000010270000A08676
:10FEE000010040420F008096980000E1F50500CA2D
:10FEF0009A3B74696D653A25753A253032753A2515
:10FF00003032750D0A646174653A25752E25752E9B
:10FF100025750D0A00726F756E643D2564206F664D
:10FF2000667365743D25640D0A007A65726F2074EE
:10FF3000696D65207061737365640A002323232053
:10FF40000D0A2072657374617274200D0A003E3EC2
:10FF500063656E746572203132683C3C0A003E3E37
:10FF600063656E746572203234683C3C0A006765D4
:10FF7000742D6770732D74696D650D0A00706F7351
:10FF80006974696F6E3D25660D0A006D6F76652D8B
:10FF9000636C6F636B0D0A0073796E6368726F6ECA
:10FFA000697A653A004F637420323520323031323D
:10FFB00000736574207A65726F0D0A0030207A65CF
:10FFC000726F20300A00200D0A232323200D0A001F
:10FFD00072696768743E3E0A006D616B6562656CAC
:10FFE0006C0031343A34393A3334006C6566743C11
:10FFF0003C0A007A766F6E3A004552524F5200002A
:020000040001F9
:10000000790E8F6F3AD3A551250A09E075C0D9FF43
:1000100076C0DAFFA5C0DFFF754B762B2ED39D6B24
:100020009E6B966B976B03D09685774B782B77C03A
:10003000F6FF78C0F7FF000EF86E0800F550300AA2
:10004000F3E086DB13EC93F027E39D6B9E6B9DC082
:1000500016F09EC017F0196A0A0E186E9FEC92F007
:1000600077DB1626000E1722D00E16249D6FFF0E8A
:1000700017209E6F774B782B77C0F6FF78C0F7FF7D
:10008000000EF86E0800F55013EC93F005E3DFD78F
:1000900097850FD0968D0DD029DBA55101E1F0D2C7
:1000A000640A07E0020AF4E00F0A03E01C0AF2E027
:1000B000E4D2070E971501E130D2956B060E946FCE
:1000C0008F51D96EDA6ADECFA1F0DECFA2F0DECF9B
:1000D000A3F0DECFA4F0040E8F27A4AF14D0A1C0EC
:1000E00016F0A2C017F0A3C018F0A4C019F0F0ECED
:1000F00092F016C0A1F017C0A2F018C0A3F019C06A
:10010000A4F0030E96139F6BA06B20EEA1F0DE50BF
:10011000DE10DE10DE105AE00001A335A435820F98
:100120009F6FA06BFF0EA0239F07D8A0A0079FC0C2
:1001300016F0A0C017F0196A030E186E9FEC92F02B
:1001400016C09FF017C0A0F09FC01CF0A0C01DF00B
:100150001F6A0A0E1E6EA8EC8EF01CC09FF01DC018
:10016000A0F0A0AF03D09F07D8A0A0079F51000820
:10017000B9EC83F060C090F061C091F062C092F081
:1001800063C093F0A1C060F0A2C061F0A3C062F0B0
:10019000A4C063F00001900E81EC91F0CEDA800EE5
:1001A0001C6E3F0E1D6EC6EC90F005E200019F072D
:1001B000D8A0A0070BD0C1DA200E1C6E410E1D6E18
:1001C000C6EC90F003E300019F4BA02B060E00014C
:1001D0008BEC88F060C071F061C072F062C073F0A7
:1001E00063C074F00001A10E37EC91F00001A05142
:1001F000800A800F0A0ED8B49F5D1DE220EEA1F0A8
:10020000DE50DE10DE10DE1061E0A1C069F0A2C099
:100210006AF0A3C06BF0A4C06CF052EC8DF06C518E
:1002200069116A116B1152E1A051800A800F020E10
:10023000D8B49F5D4BE390C016F091C017F092C008
:1002400018F093C019F05F0E1A6E700E1B6E890EB7
:100250001C6E400E1D6EC6EC90F0F70ED8B0F80E76
:100260009F27FF0EA0239F51B9EC83F060C090F050
:1002700061C091F062C092F063C093F0A1C016F02B
:10028000A2C017F0A3C018F0A4C019F090C01AF0D3
:1002900091C01BF092C01CF093C01DF03CEC8CF0A0
:1002A00016C08BF017C08CF018C08DF019C08EF0FE
:1002B0008BC098F08CC099F08DC09AF08EC09BF0E6
:1002C0000001A16BA26BA36BA46B2AD0A1C069F043
:1002D000A2C06AF0A3C06BF0A4C06CF052EC8DF029
:1002E00069C098F06AC099F06BC09AF06CC09BF03E
:1002F00098C06CF099C06DF09AC06EF09BC06FF022
:1003000072EC92F06CC070F06DC071F06EC072F063
:100310006FC073F0A10EA6EC91F000019F6BA06B73
:10032000010EA56FCBD9F3D904E3A52BA5510A0A79
:10033000F9E1A5C085F0866B85BF860794518527B6
:10034000955186239F518527A051862385519D5F16
:1003500086519E5B9551941103E09D07D8A09E079E
:100360009651030B03E09D07D8A09E0796B507D0D2
:1003700013D0DCD9754B762B9D07D8A09E079E51D4
:10038000800A800F010ED8B49D5D27E3F2D775C0B7
:10039000D9FFE7D9D8A09E079E51800A800F010E91
:1003A000D8B49D5DF4E29651030B17E075C0D9FFF8
:1003B00076C0DAFF2D0EDF6E754B762B0ED07ED910
:1003C00066D9E4EC8EF084D9BFEC8FF06051300F29
:1003D00075C0D9FF76C0DAFFEED7A5070001A529C1
:1003E00007E0EDD7A3D9754B762B9F07D8A0A007C0
:1003F000A051800A800F010ED8B49F5DF3E29551A1
:10040000800A800F090ED8B4945D03E3080EA56F2F
:1004100002D094C0A5F0A551945F000EA5BFFF0EB9
:10042000955BA55108E075C0D9FF76C0DAFF2E0EA6
:10043000DF6E754B762BA551B9EC83F060C087F069
:1004400061C088F062C089F063C08AF0A1C028F062
:10045000A2C029F0A3C02AF0A4C02BF087C024F0CA
:1004600088C025F089C026F08AC027F0D8EC8BF030
:1004700024C069F025C06AF026C06BF027C06CF07C
:10048000000152EC8DF069C098F06AC099F06BC021
:100490009AF06CC09BF031D011D9F9D8E4EC8EF011
:1004A00017D9BFEC8FF06051300F75C0D9FF76C0FF
:1004B000DAFFDF6E754B762B98C060F099C061F063
:1004C0009AC062F09BC063F0F9D8000EF8220900D0
:1004D000F5CF64F00900F5CF65F00900F5CF66F0BF
:1004E0000A00F5CF67F0BFEC8FF060C098F061C0F4
:1004F00099F062C09AF063C09BF0A5070001A5299E
:1005000007E0CAD713D9754B762B9407D8A0950767
:100510009551941101E1B1D0F5D796BD1BD08F5103
:10052000D96EDA6ADECF98F0DDCF99F0000E99BF70
:10053000FF0E9A6F9B6F020E8F279BAF1AD0030E90
:1005400096139B1F9A1F991F986D000E99239A234B
:100550009B230FD08F51D96EDA6ADECF85F0DDCFC5
:1005600086F085C098F086C099F09A6B9B6B020E5E
:100570008F27010EA56FA2D8CAD804E3A52BA551D9
:100580000A0AF9E19E519D1106E09651030B03E022
:100590009D07D8A09E07800EA5BF7F0E856F9D5139
:1005A000A55D9E51800A855907E2A5519D5F000E09
:1005B000A5BFFF0E9E5B02D09D6B9E6B96A516D0CD
:1005C0009651030B08E075C0D9FF76C0DAFF2D0EF7
:1005D000DF6E754B762B9E519D111FE0A7D8754B92
:1005E000762B9D07D8A09E070001F5D79E519D113F
:1005F00009E075C0D9FFB5D8D8A09E0700019E516B
:100600009D11F7E19651030B08E075C0D9FF76C044
:10061000DAFF2D0EDF6E754B762BA551946F956B1F
:1006200094BF950722D094C085F095C086F0D890ED
:1006300085378637D89085378637CA0E8525F66E7A
:10064000FE0E8621F76EF86A22D8E4EC8EF040D8D0
:10065000BFEC8FF06051300FA56F75C0D9FF76C029
:10066000DAFFA5C0DFFF754B762B9407D8A095075E
:1006700000019429D8B49529D6E138D8A567C3D408
:1006800075C0D9FF76C0DAFF000EDF6E000C000ED9
:10069000F8220900F5CF26F00900F5CF27F0090070
:1006A000F5CF28F00A00F5CF29F098C022F099C0C4
:1006B00023F09AC024F09BC025F01200A551040D30
:1006C000CA0EF324F66EFE0EF420F76EF86A1200DE
:1006D00022C060F023C061F024C062F025C063F046
:1006E0000A0E646F656B666B676B000C7751856FE4
:1006F0007851866F774B782B85C0F6FF86C0F7FF61
:10070000000EF86E0800F5CFA5F000011200000EF3
:10071000F8220900F550985D0900F5509959090033
:10072000F5509A590900F5509B59120075C0D9FF30
:1007300076C0DAFF300EDF6E300C90C016F091C03C
:1007400017F092C018F093C019F01A6A1B6A1200D1
:1007500077C0F6FF78C0F7FF000EF86E0800F5507E
:10076000120076C0DAFF200EDF6E754B762B9D07E8
:10077000200CE8CF68F068AF69D0686D6851800AD6
:10078000120F36E340D916BE17065AEC8FF016C08A
:100790001CF017C01DF0A8EC8EF0FAD82A0E1C240D
:1007A000F66EFE0E1D20BAD81F6A640E3BD91CBE21
:1007B0001D06A8EC8EF0D8900ED91ED9C0D8D8EC62
:1007C0008BF0F1D816BE17065AEC8FF0DAD82A0E45
:1007D0001624F66EFE0E1720A1D8D8EC8BF024C09C
:1007E00060F025C061F026C062F027C063F01200FF
:1007F0006851800A750F23E31F6A0A0E13D91CBEC5
:100800001D06A8EC8EF0C4D8F7D899D8196A0A0E3C
:1008100004D916BE17065AEC8FF0B3D82A0E162448
:10082000F66EFE0E17207AD8D8EC8BF024C060F05C
:1008300025C061F026C062F027C063F01200685145
:10084000040D2A0EF324F66EFE0E89D06851800A3C
:10085000120F36E3D8D816BE17065AEC8FF016C022
:100860001CF017C01DF0A8EC8EF092D85E0E1C2470
:10087000F66EFE0E1D2052D81F6A640ED3D81CBE21
:100880001D06A8EC8EF0D890A6D8AFD858D8D8ECD2
:100890008BF089D816BE17065AEC8FF072D85E0E10
:1008A0001624F66EFE0E172039D8D8EC8BF024C033
:1008B00060F025C061F026C062F027C063F012002E
:1008C0006851800A750F23E31F6A0A0EABD81CBE5D
:1008D0001D06A8EC8EF05CD888D831D8196A0A0EAB
:1008E0009CD816BE17065AEC8FF04BD85E0E162415
:1008F000F66EFE0E172012D8D8EC8BF024C060F0F4
:1009000025C061F026C062F027C063F01200685174
:10091000040D5E0EF324F66EFE0E21D0F76EF86A1B
:10092000000EF8220900F5CF28F00900F5CF29F0D4
:100930000900F5CF2AF00A00F5CF2BF01200F86A73
:10094000000EF8220900F5CF24F00900F5CF25F0BC
:100950000900F5CF26F00A00F5CF27F01200F420A9
:10096000F76EF86A000EF8220900F5CF60F0090072
:10097000F5CF61F00900F5CF62F00A00F5CF63F022
:100980001200D89016361736D89016361736120041
:10099000D8901C361D36D8901C361D36240E1C26C9
:1009A000000E1D22000C24C064F025C065F026C096
:1009B00066F027C067F064C024F065C025F066C00B
:1009C00026F067C027F0196A0A0E186E00016851F8
:1009D000166E176A12001C361D36D8901C361D364E
:1009E000480E1C26000E1D22000C5E0E1C24F66E06
:1009F000FE0E1D20F76E12002A0E1C24F66EFE0E4F
:100A00001D20F76E12001F6A0A0E1E6E196A640E10
:100A1000186E6851166E176A1200186E6851166EBD
:100A2000176A12001E6E68511C6E1D6A120068C0A3
:100A300022F069C023F06AC024F06BC025F0340EA8
:100A4000266E000E276A286A296AE4EC8EF022C01E
:100A500082F023C083F024C084F025C085F070515B
:100A6000D96EDA6A020ED926DA6A8251EC0FDF6E8D
:100A70007D6BB50E1A6E050E1B6E1C6A1D6A82C058
:100A800030F083C031F084C032F085C033F0030E03
:100A900005D0D8903332323231323032E82EF9D7A5
:100AA00030C016F031C017F032C018F033C019F062
:100AB000ECEC90F016C022F017C023F018C024F020
:100AC00019C025F0070E266E000E276A286A296ACB
:100AD000E4EC8EF02250685D756F23506959766F93
:100AE00024506A59776F25506B59786F75C016F08E
:100AF00076C017F077C018F078C019F0070E1A6E9C
:100B0000000E1B6A1C6A1D6AECEC90F016C079F0AE
:100B100017C07AF018C07BF019C07CF06CC022F0CE
:100B20006DC023F06EC024F06FC025F0800E266EDD
:100B3000510E276E010E286E000E296AE4EC8EF02D
:100B400079512224866F7A512320876F7B5124208C
:100B5000886F7C512520896F826B836B846B856BDA
:100B6000BA0E8225F66EFE0E8321F76EF86A000E2D
:100B7000F8220800F5507E6F7F6B806B816B8205D9
:100B800083118411851107E17D5105E0862B000E4C
:100B900087238823892386517E5D87517F59885119
:100BA0008059895181590DE37051D96EDA6AD92A79
:100BB000DA6A8229DF6E7051D96EDA6A86C0DFFF89
:100BC00016D07E51865F7F51875B8051885B815153
:100BD000895B822B000E83238423852300018251AD
:100BE0000C0A831184118511D8B41200B9D76CC0D6
:100BF00060F06DC061F06EC062F06FC063F0800E97
:100C0000646F510E656F010E666F000E676BBFEC6F
:100C10008FF044D8050E4ED8100E266E0E0E276E9D
:100C2000000E286A296AE4EC8EF02250DF6E86C03E
:100C300060F087C061F088C062F089C063F0100E78
:100C4000646F0E0E656F000E666B676BBFEC8FF006
:100C500025D8040E2FD83C0E266E000E276A286A6F
:100C6000296AE4EC8EF02250DF6E7051D96EDA6A98
:100C7000030ED926DA6A86C060F087C061F088C0AA
:100C800062F089C063F03C0E646F000E656B666BAA
:100C9000676BBFEC8FF06051DF6E120060C086F0B2
:100CA00061C087F062C088F063C089F07051D96E6E
:100CB000DA6A1200D926DA6A86C022F087C023F0E9
:100CC00088C024F089C025F01200A6C016F0A7C085
:100CD00017F0A8C018F0A9C019F0BFC01AF0C0C022
:100CE0001BF0C1C01CF0C2C01DF0C6EC90F011E2B8
:100CF000FF0E196E2A0E186E4DEC90F021EC90F05C
:100D0000A6C0BFF0A7C0C0F0A8C0C1F0A9C0C2F083
:100D1000010CA6C0BFF0A7C0C0F0A8C0C1F0A9C018
:100D2000C2F0010E0001B16FA6C02CF0A7C02DF0DB
:100D3000A8C02EF0A9C02FF0C7C020F0C8C021F075
:100D4000B5EC92F020C030F021C031F022C032F07A
:100D500023C033F0ECEC91F02CC0B2F02DC0B3F016
:100D60002EC0B4F02FC0B5F00001B5AF30D0FF0EEB
:100D7000196EEB0E186E4DEC90F00001B16BB5BF23
:100D800009D0B2C0AAF0B3C0ABF0B4C0ACF0B5C0EB
:100D9000ADF012D0B2C016F0B3C017F0B4C018F066
:100DA000B5C019F0F0EC92F016C0AAF017C0ABF085
:100DB00018C0ACF019C0ADF0AAC069F0ABC06AF0C1
:100DC000ACC06BF0ADC06CF052EC8DF03DD0166A4B
:100DD000176A7A0E186E450E196EB2C01AF0B3C0BB
:100DE0001BF0B4C01CF0B5C01DF0C6EC90F01BE2C7
:100DF000FF0E196EEB0E186E4DEC90F00001B16B0A
:100E0000B2C069F0B3C06AF0B4C06BF0B5C06CF0AA
:100E100052EC8DF069512A08AF6F6A51D8A0E82AC8
:100E20001708B06F15D0FF0E196ED00E186E4DEC6E
:100E300090F0B2C069F0B3C06AF0B4C06BF0B5C056
:100E40006CF0000152EC8DF069C0AFF06AC0B0F0F8
:100E5000020E0001766F000E756FFF0E786F150E93
:100E6000776FC7C079F0C8C07AF0AFC07BF0B0C070
:100E70007CF000EC80F00201020E196E000E186E7C
:100E80004DEC90F04AD02A0E78EC90F0176A010EE3
:100E9000166EB1C018F0A3EC8DF00001B10527E18A
:100EA00036A083B60BD084BE09D0386A050E376EE3
:100EB000FF0E196E5E0E186E4DEC90F036A283B6E2
:100EC00006D0FF0E196E4E0E186E4DEC90F03706E0
:100ED000D8A03806385037100AE1FF0E196EBC0E44
:100EE000186E4DEC90F00001C76BC86B010C010E41
:100EF00083B6000E356E354636503518FD0B351865
:100F0000366E0001AE6B83A684BE02D0010EAE6FBA
:100F1000AE6702D0369001D036800001AF07D8A06E
:100F2000B007AF29D8B4B029AEE1A6C069F0A7C018
:100F30006AF0A8C06BF0A9C06CF052EC8DF069C0EB
:100F4000C7F06AC0C8F0000C640E0001786F010E93
:100F50007B6F000E7A6FD3D0176A640E166E40EC6A
:100F600092F01650B50A171001E0C9D0176A640E46
:100F7000166E40EC92F01650620A171001E0BFD0D6
:100F8000176A640E166E40EC92F01604171001E01A
:100F9000B6D0176A640E166E40EC92F01650060A30
:100FA000171001E0ACD0176A640E166E40EC92F098
:100FB0001650340A171001E0A2D0176A640E166E9C
:100FC00040EC92F01750161001E099D089887AC051
:100FD000D9FF7BC0DAFF010EDF6E20EE01F07A51FF
:100FE000D9267B51DA22060EDF6E20EE02F07A510E
:100FF000D9267B51DA22340EDE6EDD6A796B7951A7
:101000007A25346E000E7B21356E040E3424D96EA1
:10101000000E3520DA6E176A640E166E40EC92F000
:101020001650DF6E792B330E7965E9D7176A640E97
:10103000166E40EC92F01650CF6F176A640E166E63
:1010400040EC92F01650D06F89987AC016F07BC0B1
:1010500017F0380E186ECF0E196ECBEC91F0000918
:101060004EE0FF0E196E6E0E186E4DEC90F0040EF1
:1010700000017A25346E000E7B21356E34C018F0E5
:10108000196A4DEC90F0000120EE04F07A51D92657
:101090007B51DA22DECF22F0DECF23F0DECF24F048
:1010A000DECF25F0E80E266E030E276E000E286AAE
:1010B000296AE4EC8EF022C074F023C075F024C0DD
:1010C00076F025C077F020EE0CF07A51D9267B51CE
:1010D000DA22DECF34F0DDCF35F034C06CF035C02D
:1010E0006DF06E6B6F6B74C070F075C071F076C090
:1010F00072F077C073F05AEC92F08998120078077A
:101100000001782901E028D7FF0E196EF90E186E3C
:101110004DEC90F0F2D7E8CF70F06D0E00017065E5
:1011200068D00A0E1A6E640E166E7051CAEC92F0F8
:1011300025EC92F00001646F656BD89064376537D9
:10114000D89064376537240E6427000E65232A0E75
:101150006425F66EFE0E65218EEC84F0640E1A6E28
:10116000705125EC92F0AED8480EA2D89FEC84F0D6
:10117000D8EC8BF024C06CF025C06DF026C06EF06A
:1011800027C06FF00A0E166E00017051CAEC92F083
:101190000001646F656BD89080D88EEC84F06CC0D1
:1011A00024F06DC025F06EC026F06FC027F0D8EC9B
:1011B0008BF024C068F025C069F026C06AF027C013
:1011C0006BF068C024F069C025F06AC026F06BC0DF
:1011D00027F0286A296A2A6A3F0E2B6ED8EC8BF01A
:1011E00024C060F025C061F026C062F027C063F023
:1011F00012000A0E706537D0166E7051CAEC92F06C
:101200000001646F656BD89048D88EEC84F00A0EAC
:101210001A6E705125EC92F055D8240E49D89FECE7
:1012200084F0D8EC8BF024C06CF025C06DF026C0A3
:101230006EF027C06FF06CC024F06DC025F06EC05A
:1012400026F06FC027F0286A296A2A6A3F0E2B6EA3
:10125000D8EC8BF024C060F025C061F026C062F0AD
:1012600027C063F012007051040D2A0EF324F66EAD
:10127000FE0EF420F76E9FEC84F0286A296A2A6A31
:101280003F0E2B6ED8EC8BF024C060F025C061F0CF
:1012900026C062F027C063F0120064376537D8902B
:1012A000643765372A0E6425F66EFE0E652112003E
:1012B0006627000E67232A0E6625F66EFE0E67214E
:1012C000F76E1200666F676BD89066376737D890F5
:1012D000663767371200223423342B6E26342734C6
:1012E0002A6E2B5009E02A502B600FD02B502A5C1D
:1012F000286E210E285C09E324C020F025C021F0CF
:1013000026C022F027C023F012002A5009E02B50FB
:101310002A600FD02A502B5C286E210E285C09E32E
:1013200020C020F021C021F022C022F023C023F0F1
:101330001200060E296E23BE298E27BE298C228E0E
:10134000236A268E276A2A502B6018D0D89024361C
:101350002536263627362A062A502B180BE0290672
:101360002950070B07E0F2D7D890233222322132DE
:1013700020322B2A2A502B62F7D71AD02B502A6002
:1013800017D0D89020362136223623362B062A5005
:101390002B180BE029062950070B07E0F2D7D8904D
:1013A00027322632253224322A2A2A502B62F7D7B6
:1013B00029AE09D0201E211E221E231E202A000E27
:1013C00021222222232229AC02D0241E26D8296AD7
:1013D0002050242621502522225026222350272225
:1013E00027AE04D0241E19D8010E296E24C016F091
:1013F00025C017F026C018F027C019F02BC01AF02E
:1014000029C01BF09CEC8CF016C020F017C021F016
:1014100018C022F019C023F01200251E261E271E18
:10142000242A000E252226222722000C0F0E1E6ED3
:1014300016C01FF017C020F018C021F01E28226E21
:1014400001D069D8222EFDD71F50286E286605D0FE
:10145000166A176A186A196A12000F0E1E6E1AC0F1
:101460001FF01BC020F01CC021F01E28226E01D0EE
:1014700052D8222EFDD71F50276E276601D0E8D7FD
:10148000178E186A1B8E1C6A236A246A256A266ACC
:101490007F0E285E2750980F285E180E276ED89072
:1014A00023362436253626361A50165C1B5017581C
:1014B0001C50185807E31A50165E1B50175A1C5040
:1014C000185A2380D890163617361836272EE7D7A5
:1014D00028AE0CD02850800A970FBAE3D890263255
:1014E000253224322332283EF9D70CD0170E286437
:1014F00007D0AED7D8902336243625362636280690
:101500002866F8D723C016F024C017F025C018F0BD
:1015100026C019F01200D890213220321F3212005A
:101520008EEC8FF04EEC93F0FF0E196E3C0E186EA1
:101530004DEC90F0FF0E196EA50E186E4DEC90F06C
:10154000FF0E196EE20E186E4DEC90F0FF0E196E44
:10155000C60E186E4DEC90F022EC93F004004E0E87
:101560000001C66F200EC56FC651C511FDE13CECF0
:1015700093F03CEC93F00001C3A509D0FF0E196E67
:101580008B0E186E4DEC90F071EC8BF0C395C3A1EF
:1015900036D0FF0E196E980E186E4DEC90F03CECA4
:1015A00093F0C90E89EC92F0CA510A0A03E0CA51BD
:1015B000030AD8B4C389020E766FC80E756FFE0E8B
:1015C000786FF20E776FCEC079F07A6BCDC07BF07A
:1015D0007C6BCCC07DF07E6BC9C07FF0806BCAC0D5
:1015E00081F0826BCBC083F0846B00EC80F0020E44
:1015F000196EC80E186E4DEC90F00001C391C3B97E
:1016000002EC93F0C3B3C3930400B5D75ED8A60E23
:101610002124F66EFE0E52D8F5CF27F00A0E286E62
:1016200054D8920E2124F66EFE0E48D8F5CF2AF03B
:10163000030E2B6E270E166E000E4ED81664176A18
:101640006BEC8EF016C023F017C024F02A0E166E35
:10165000000E42D81664176A6BEC8EF016C025F0A7
:1016600017C026F0000E176EC90E166E6BEC8EF0CA
:1016700016C02DF017C02EF02D50235C2E5024588C
:1016800001E2010C24502E1802E123502D1806E12E
:1016900020EECEF0020EDF6401D0010C25502D5C4F
:1016A00026502E58EEE326502E1802E125502D1814
:1016B00004E1020ECE61000C010C000C2220F76E3A
:1016C000F86A000EF82208001200F40ECB25216EF5
:1016D000226AFF0E2222FF0C176E0F0E176E5F0E8E
:1016E000120009EC92F030C06CF031C06DF032C0E5
:1016F0006EF033C06FF072EC92F06CC0B7F06DC05A
:10170000B8F06EC0B9F06FC0BAF0C90E89EC92F0B3
:10171000CD6708D03686FF0E196ED90E186E4DECC7
:1017200090F007D020EECDF0030EDF6402D03698A3
:101730003696A70E2F6E1E0E306E690E316E410E5C
:10174000326E0001B70E5CEC91F0020E0001766F74
:10175000000E756FFF0E786F7D0E776FB7C079F052
:10176000B8C07AF0B9C07BF0BAC07CF000EC80F071
:101770000201020E196E000E186E4DEC90F036B696
:1017800036B805D00001CE51A0EC90F03688B7C035
:10179000A6F0B8C0A7F0B9C0A8F0BAC0A9F000017F
:1017A00065EC86F00001B66FB605D8A41200EFD73D
:1017B000263427342C6E2C6605D0246A256A266AC6
:1017C000276A12002A342B34326E326605D0246A1E
:1017D000256A266A276A120032507B0F2C2627C002
:1017E00032F02B50321A800E3216268E2A8E2B6A39
:1017F0002D6A2E6A2F6A306A070E316E24A002D03D
:1018000028502BD832D8283629362A362B36312E76
:10181000F5D7110E316E24A002D028501ED825D83D
:1018200030322F322E322D32312EF5D72DC016F018
:101830002EC017F02FC018F030C019F02CC01AF0CD
:1018400032C01BF09CEC8CF016C024F017C025F0C1
:1018500018C026F019C027F012002D2629502E227C
:101860002A502F222B5030221200D89027322632B5
:1018700025322432D890120018341934236E23668E
:1018800005D0166A176A186A196A12001C341D34CA
:10189000226E226601D0F5D7188E196A1C8E1D6A39
:1018A0001E6A1F6A206A216A7F0E235E2250A00FE3
:1018B000235E200E226ED8901E361F36203621362B
:1018C0001A50165C1B5017581C5018581D501958A8
:1018D00009E31A50165E1B50175A1C50185A1D5017
:1018E000195A1E80D8901636173618361936222EF9
:1018F000E2D723AE0CD02350800A9F0FC2E3D890CA
:10190000213220321F321E32233EF9D70CD01F0E57
:10191000236407D0B6D7D8901E361F36203621361E
:1019200023062366F8D71EC016F01FC017F020C08C
:1019300018F021C019F012001A5005E019501610C5
:101940001710181007E1166A176A186A196A120048
:101950001A2A4AD81C6A1D6A1E6AFE0E19141F6EC6
:101960001F501C101D101E1008E0F2D71A2A162A4C
:10197000000E17221822192237D81C6A1D6A1E6A07
:1019800019501F6E1F501C101D101E1007E0EED7BF
:101990001A06D890163617361836193618AEF8D7F4
:1019A0001AB002D07F0E1816D8901A321AC01CF046
:1019B0001D6A1E6A1F6A1CC01FF01E6A1D6A1C6A0F
:1019C0001C5016121D5017121E5018121F501912BB
:1019D0001B50D8A4198E16C016F017C017F018C0E7
:1019E00018F019C019F01200D890193218321732B5
:1019F00016321200223423342D6E2D6605D0206A53
:101A0000216A226A236A1200263427342E6E2E663B
:101A100005D0206A216A226A236A12002E50890F9B
:101A20002D5E23C02EF027502E1A800E2E16228EE9
:101A3000236A268E276A200E2C6ED89028362936E7
:101A40002A362B362450205C255021582650225807
:101A50002750235809E32450205E2550215A265050
:101A6000225A2750235A2880D890203621362236F1
:101A700023362C2EE2D728C016F029C017F02AC032
:101A800018F02BC019F02DC01AF02EC01BF09CECE2
:101A90008CF016C020F017C021F018C022F019C039
:101AA00023F0120000016B356C35346E346606D0BD
:101AB0000001696B6A6B6B6B6C6B1200000169C093
:101AC0006DF06AC06EF06BC06FF06CC070F0200EED
:101AD00005D0D89070336F336E336D33E82EF9D75D
:101AE0006D51336E6B8F6C6B960E345E34AE0CD0D2
:101AF0003450800A970FDCE3D8906C336B336A3331
:101B00006933343EF9D70CD01F0E346407D0D0D7D8
:101B1000D89069376A376B376C3734063466F8D734
:101B2000335008E06C1F6B1F6A1F696D000E6A233B
:101B30006B236C2369C069F06AC06AF06BC06BF0FC
:101B40006CC06CF012002CD0186602D0412A01D073
:101B500041064150030B416E2CD81AA002D08E8A48
:101B600001D08E9A26D81AA402D08D8A01D08D9ADF
:101B700020D81AA202D08F8201D08F921AD81AA62A
:101B800002D08F8401D08F948F908E9C040000012E
:101B9000C66B1E0EC56FC651C511FDE18E9C8F90A0
:101BA0001606D8A017061628D8B41728D8B41200DD
:101BB000CBD7C60E4124F66EF76AFE0EF722F86AFE
:101BC000000EF8220800F5CF19F019C01AF0120023
:101BD000305047240001686F31504820696F3250FF
:101BE00049206A6F33504A206B6F68C060F069C04B
:101BF00061F06AC062F06BC063F0800E646F3A0EF1
:101C0000656F090E666F000E676BBFEC8FF060C0EA
:101C100047F061C048F062C049F063C04AF068C054
:101C200022F069C023F06AC024F06BC025F0800E5A
:101C3000266E3A0E276E090E286E000E296AE4EC15
:101C40008EF0225043262350442224504522255012
:101C5000462212000E504724126E0F504820136E79
:101C600010504920146E11504A20156E12C001F018
:101C700013C002F014C003F015C004F0800E056E0E
:101C80003A0E066E090E076E000E086AF0EC8FF031
:101C900001C047F002C048F003C049F004C04AF058
:101CA00012C001F013C002F014C003F015C004F01C
:101CB000800E056E3A0E066E090E076E000E086A5B
:101CC0001FEC8FF00150432602504422035045225E
:101CD0000450462212001E6A1F6A206A0FD0BA0EF4
:101CE0002024F66EF76AFE0EF722F86A000EF8223C
:101CF0000800F5501E26000E1F22202A20EE01F0BB
:101D00001650D9261750DA221AD820501B6E1C6A9A
:101D10001C50800A1D6E19501B5C1A50800A1D58F9
:101D2000DEE316C0D9FF17C0DAFF09D819501E2606
:101D30001A501F221EC016F01FC017F01200DF50ED
:101D4000186EFF0E1824196E1A6AFF0E1A22FF0C65
:101D5000216A1FAE06D01E6C1F1ED8B01F2A010EAE
:101D6000216E1DAE06D01C6C1D1ED8B01D2A010EA2
:101D7000211A226A236A1F501E101BE0010E206EDA
:101D800004D0D8901E361F36202A1FAEFAD7D8901E
:101D9000223623361E501C5C1F501D5805E31E5072
:101DA0001C5E1F501D5A2280D8901F321E32202EDA
:101DB000EED7215004E0226C231ED8B0232A22C083
:101DC0001CF023C01DF012002A6A2B6A2C6A2D6AAF
:101DD000295026102710281029E0010E2E6E06D05B
:101DE000D89026362736283629362E2A29AEF8D717
:101DF000D8902A362B362C362D362650225C27508A
:101E00002358285024582950255809E32650225E8B
:101E10002750235A2850245A2950255A2A80D890CE
:101E200029322832273226322E2EE2D72AC022F03B
:101E30002BC023F02CC024F02DC025F01200096A1D
:101E40000A6A0B6A0C6A085005100610071029E090
:101E5000010E0D6E06D0D8900536063607360836C8
:101E60000D2A08AEF8D7D89009360A360B360C364C
:101E70000550015C0650025807500358085004589A
:101E800009E30550015E0650025A0750035A0850F4
:101E9000045A0980D89008320732063205320D2ED6
:101EA000E2D709C001F00AC002F00BC003F00CC079
:101EB00004F012001B6A17AE06D0166C171ED8B0BD
:101EC000172A010E1B6E19AE04D0186C191ED8B05B
:101ED000192A1950181017E0010E1A6E04D0D89064
:101EE000183619361A2A19AEFAD71850165C195036
:101EF000175804E31850165E1950175AD890193223
:101F000018321A2EF2D71B5004E0166C171ED8B0E8
:101F1000172A16C016F017C017F012009B9C926A81
:101F20009368946A986A800E966E896A8A6A8B6A48
:101F300092881E0E956E800E976E948C948E560E1F
:101F4000B06E7F6A080E7E6EA40EAD6E900EAC6E03
:101F5000C088C168C268C098C26AC16AD26AD16AC0
:101F6000980ED56EF28AB50ECD6E9D80F19E850ECF
:101F7000796EA0829384938AF28CF28E850C6751DD
:101F800064116511661123E0010E2F6E06D0D89002
:101F900064376537663767372F2A67AFF8D76451DC
:101FA000605D65516159665162596751635908E333
:101FB0006451605F6551615B6651625B6751635B51
:101FC000D89067336633653364332F2EE8D760C00B
:101FD00060F061C061F062C062F063C063F0120043
:101FE000085005100610071023E0010E096E06D0F8
:101FF000D8900536063607360836092A08AEF8D7CF
:102000000550015C06500258075003580850045808
:1020100008E30550015E0650025A0750035A085063
:10202000045AD8900832073206320532092EE8D712
:1020300001C001F002C002F003C003F004C004F0CC
:102040001200FF0E196EB10E186E4DEC90F007D015
:10205000176A010E166E000E186AA3EC8DF083B697
:1020600002D084AEF5D71B6A1C6A08D0176A010E2D
:10207000166E186EA3EC8DF01B4A1C2A83A684BE34
:10208000F5D70001C76BC86B36903684176A030E0C
:10209000166E010E186ED0EF8DF015D018C0F6FF39
:1020A00019C0F7FF000EF86E0F0EF76403D008009A
:1020B000F55005D0F6CFE9FFF7CFEAFFEF5078EC07
:1020C00090F0184A192A18C0F6FF19C0F7FF000E41
:1020D000F86E0F0EF76403D00800F55005D0F6CF68
:1020E000E9FFF7CFEAFFEF500009D8B41200D6D7C6
:1020F000E8CF16F08A8E42A0FED7429042A0FED7CB
:10210000429042A0FED742908A9E080E176E0AD0D7
:1021100042A0FED7429016A002D08A8E01D08A9E9D
:10212000D890163217061728F3E142A0FED7429046
:102130008A8E42A0FED7429042A0FED74290120063
:10214000E8CF1AF01ED0FF0E196EF30E186E4DEC8C
:1021500090F01A50300F78EC90F093948A94040029
:10216000120E0001C66FC00EC56FC651C511FDE14C
:10217000938404000001C66B640EC56FC651C5117F
:10218000FDE11A061A28D8B41200DDD719AE09D01D
:10219000166C171ED8B0172A181ED8B0182A800E31
:1021A00019561DAE09D01A6C1B1ED8B01B2A1C1E56
:1021B000D8B01C2A800E1D56800E191A1D1A1A50EE
:1021C000165C1B5017581C5018581D50195802E225
:1021D000D8901200D88012001E6A1F6A206A216AF5
:1021E00016A008D01A501E261B501F221C50202259
:1021F0001D502122D8901A361B361C361D36D89019
:1022000019321832173216321950161017101810CA
:10221000E7E11EC016F01FC017F020C018F021C063
:1022200019F0120002EEC8F012EE00F0EE6AE5506E
:10223000E150FCE1E250FAE102EE00F0C80EEE6A75
:10224000E806FDE101EE00F0640EEE6AE806FDE14D
:1022500000EEBBF0160EEE6AE806FDE100EE36F089
:10226000150EEE6AE806FDE1000190EF8AF0E8CF76
:1022700033F03350D96EDA6ADECF20F0DECF21F0B2
:10228000DECF22F0DECF23F071C024F072C025F043
:1022900073C026F074C027F06BEC89F03350D96E10
:1022A000DA6A20C0DEFF21C0DEFF22C0DEFF23C0CD
:1022B000DDFFD906D9061200E8CF33F03350D96ECE
:1022C000DA6ADECF20F0DECF21F0DECF22F0DECFE3
:1022D00023F02FC024F030C025F031C026F032C0EA
:1022E00027F0FAEC8CF03350D96EDA6A20C0DEFFAA
:1022F00021C0DEFF22C0DEFF23C0DDFFD906D906E4
:102300001200E8CF33F03350D96EDA6ADECF24F012
:10231000DECF25F0DECF26F0DECF27F060C028F03C
:1023200061C029F062C02AF063C02BF0D8EC8BF0BA
:102330003350D96EDA6A24C0DEFF25C0DEFF26C026
:10234000DEFF27C0DDFFD906D9061200E8CF34F042
:102350003450D96EDA6ADECF2CF0DECF2DF0DECF2E
:102360002EF0DECF2FF070C030F071C031F072C0AF
:1023700032F073C033F0ECEC91F03450D96EDA6A7D
:102380002CC0DEFF2DC0DEFF2EC0DEFF2FC0DDFF24
:10239000D906D90612001C6A1A6A1B6A0BD01B5098
:1023A0001624D96E000E1720DA6EDF501C261C5042
:1023B0001A261B2A18501B5CF2E31950D96EDA6AF0
:1023C0001C50DF62000C1950D96EDA6AD92ADA6A19
:1023D0001A50DF62000C010C800E331A2CC020F062
:1023E0002DC021F02EC022F02FC023F030C024F0E9
:1023F00031C025F032C026F033C027F06BEC89F0F5
:1024000020C02CF021C02DF022C02EF023C02FF0D0
:10241000120047C060F048C061F049C062F04AC095
:1024200063F0800E0001646F510E656F010E666FE0
:10243000000E676BBFEC8FF060C030F061C031F010
:1024400062C032F063C033F01200E8CF1BF01D6AA7
:102450001A5014E0010E1C6E03D0D8901A361C2AB4
:102460001AAEFBD7D8901D361A501B5C03E31A50E6
:102470001B5E1D80D8901A321C2EF4D71D501200FE
:1024800016C0C5F017C0C6F0C651C51102E09EAA1D
:10249000FBD79EBA03D0166817681200ACA206D00C
:1024A00046EC93F01768FE0E166EFE0CAFCF16F0DA
:1024B000176A12006CC043F06DC044F06EC045F066
:1024C0006FC046F070C047F071C048F072C049F06C
:1024D00073C04AF0200E306E1C0E316E326A336AC1
:1024E000E8EF8DF06CC016F06DC017F06EC018F0FC
:1024F0006FC019F0960E1A6E000E1B6A9CEC8CF0E1
:1025000016C06CF017C06DF018C06EF019C06FF0F7
:102510001200E8CF34F043C068F044C069F045C011
:102520006AF046C06BF047C06CF048C06DF049C01F
:102530006EF04AC06FF034C070F017EF85F01A6A81
:102540001B6A16A004D018501A2619501B22D890C6
:1025500018361936D8901732163217501610F1E186
:102560001AC016F01BC017F0120020C016F021C0D0
:1025700017F0186A196A960E1A6E000E1B6A9CEC08
:102580008CF016C020F017C021F018C022F019C03E
:1025900023F01200E8CF17F0080E186E196AD890D1
:1025A00017341934196ED89017361650195C02E397
:1025B0001650195E182EF3D7195012008E9A8F926A
:1025C0008D8A8F848F908E9C0400010E0001C66F4F
:1025D0002C0EC56FC651C511FDE18E8C8F80120087
:1025E00020EE16F0DE50DE10DE10DE1002E0800E6F
:1025F000191A16C016F017C017F018C018F019C035
:1026000019F0120039B20DD006EC8BF02F6E2F04AA
:10261000010ED8A4000E306E3918FE0B3018396E3A
:10262000120039901200E8CF18F0176A3A0E1860BD
:1026300005D02F0E186402D0010E176E17C016F0C9
:10264000163012008F8830EC93F036903692399025
:1026500039823984C76BC86BDEEC92F021EF90F0C1
:102660008F880400030E0001C66FE80EC56FC651C7
:10267000C511D8B41200FBD7A4EC87F0F00E306E71
:10268000F10E316E32683368E8EF8DF09EAA1200C9
:10269000AC98AF50AF50AC889E9A1200939E8A9E21
:1026A0001200FF00FF00FF00FF00FF00FF00FF001F
:08FFF000FF00FF00FF00FF000D
:06FFF800A7F7C5FFF8F9B0
:00000001FF
